:020000040000FA
:08000000803102288731F92F3D
:100E140021009D1408001630210097000800710875
:100E24002000A1007008A000080071082000A5009F
:100E34007008A400080071082000A3007008A20034
:100E4400080021001C08F1001B08F0000800031032
:100E540021009D1C03140030093D0800723021005C
:100E640099009A01980124009D0108008030210016
:100E74009E009F019B019C0101309D000800F00031
:100E84002000111E462F472F422F700823009A007E
:100E9400080087310A278731873129278731003AAB
:100EA4000319552F562F4E2F8731232787310800DA
:100EB4008731C827873187313027873187310D271C
:100EC4008731873138278731873181278731080077
:100ED400772F71088600720887000108873141273F
:100EE40087310130F1070030F23D71088600720845
:100EF40087000108031D7F2F802F6B2F0800083007
:100F040023009F0090309D0024309E00CF309B0032
:100F14009C010030F0000030F10087311727873141
:100F24000030F0000030F10087311D278731003098
:100F3400F0000030F100873111278731FC010800EF
:100F440087315A27873187313827873187314B27B3
:100F540087317308F9007208F8007908FB007808F3
:100F6400FA007B08F2007A08F10087316A2787319A
:100F74000B30F7002630F6005E30890BBF2FF60BDE
:100F8400BF2FF70BBF2FA82F8031022822008C011E
:100F94008D018E01373021008C0070308D00FE30C1
:100FA4008E00CF3023008E00D0308D0017308C009F
:100FB40024008D018C018E012100951725008C01E0
:100FC4008D018E01373026008C00F0308D00FF300B
:100FD4008E003F3027008C00F0308D00FF308E00F3
:100FE4000D303C00A40016303D009F000800FC01B9
:0C0FF4002000A601A70120008731A22FD9
:020000040001F9
:04000E00E43FFF3E8E
:00000001FF
