:020000040000FA
:10000000803102288731E12FFE0012001E00FE0B16
:1000100005280034803021009E009F019B019C0137
:1000200001309D000800FB01FC01760877040319EC
:100030001A281B284A28FD01FD0A27280130F63519
:10004000F70D890B1F280130FA007A08FD07F71F0A
:100050002A282B281E280130FB35FC0D890B2C2863
:1000600077087902031D362876087802031C3928A0
:100070003A283F287608F8027708F93B7B140130CC
:10008000F736F60C890B40280130FD02031D492884
:100090004A282B287C08F7007B08F600080020007F
:1000A000DF004E0886008701403FD000413FD1006D
:1000B00050088400510885001200253A031D61286C
:1000C000622839294E0886008701013081074131B5
:1000D0000318810A2100A201A301A601A701FF3094
:1000E000A400FF30A50020004E0886008701403F95
:1000F000D000413FD1005008840051088500120013
:10010000643A03198428852896284E0886008701BA
:10011000403FD000413FD100500884005108850085
:100120001200693A031D95289628D1284E088600AA
:1001300087010130810741310318810A4F08860089
:10014000870101088400850102308107003FD0004B
:10015000013FD1005008D5005108D600890D893BD8
:100160008909D700D800D900DA00DB00DC00550887
:10017000B0005608B1005708B2005808B30059083B
:10018000B4005A08B5005B08B6005C08B7005F0809
:1001900081315D21803120003108CF003008CE0050
:1001A0005C294E0886008701403FD000413FD100C6
:1001B00050088400510885001200733A031DE1289D
:1001C000E22804294E088600870101308107413169
:1001D0000318810A4F088600870101088400850101
:1001E00002308107003FDD00013FDE005E08F900BC
:1001F0005D08F8005F088D313E25803179082000C8
:10020000CF007808CE005C294E0886008701403F69
:10021000D000413FD10050088400510885001200F1
:10022000253A031D142915292E294E088600870119
:100230000130810741310318810A2530F000003078
:10024000F1005F08D0005008F2008B31BA238031F2
:1002500001302000CE000030CF005C294E0886001F
:1002600087010130810741310318810ACE01CF0196
:100270005C294E0886008701403FD000413FD100F5
:1002800050088400510885000008D200D3015208AC
:10029000F0005308F1005F08D4005408F2008B31DD
:1002A000BA23803120004E08860087010130810783
:1002B00041310318810A282908002000BB003008BA
:1002C000C4003108C5003208C6003308C70034082E
:1002D000C8003508C9003608CA003708CB004430CA
:1002E000860000308700473FB800B81B78297A297C
:1002F00001307B2900302000B900BA013908C20062
:100300003A08C30042084304031987298829A6290B
:10031000C409C509C609C709C809C909CA09CB0959
:10032000C40A031DA629C50A031DA629C60A031D62
:10033000A629C70A031DA629C80A031DA629C90A9A
:10034000031DA629CA0A031DA629CB0A2100A51B45
:10035000AA29AB29AF29FD30A605FF30A70525083E
:10036000803A2000B80080303802031DBA290130DD
:10037000210024020318BD29BE29C4290130200010
:10038000BE000030BF00CC29210025082000BF009E
:10039000210024082000BE00210023082000C10005
:1003A000210022082000C00042084304031DD9296F
:1003B000DA29DF292100261DDE29DF29E429FF3083
:1003C0002000C007FF30C13D1F302000CC000030AE
:1003D000CD002200BF01552AFF302000CC07FF309E
:1003E000CD3D0A30A000A101A201A301A401A501F5
:1003F000A601A7014408A8004508A9004608AA00CC
:100400004708AB004808AC004908AD004A08AE00F8
:100410004B08AF008E311526813120002108F400F1
:100420002008F3008931462181317308303E2000D5
:10043000B8004C08203E8600013087003808810053
:10044000FF30BE07FF30BF3DFF30C007FF30C13D6A
:100450000A30A000A101A201A301A401A501A601E7
:10046000A7014408A8004508A9004608AA004708B3
:10047000AB004808AC004908AD004A08AE004B0884
:10048000AF008E31FF26813120002008C4002108F2
:10049000C5002208C6002308C7002408C800250894
:1004A000C9002608CA002708CB0020004D08803A62
:1004B000B80080303802031D5F2A01304C02031C53
:1004C000622A632A902A200044084504460447040F
:1004D000480449044A044B04031D6F2A702AEC297E
:1004E0003F08803AB80080303802031D792A013075
:1004F0003E0203187C2A7D2AEC2920004108803A1C
:10050000B80080303802031D872A01304002031CE6
:100510008A2A8B2A902A2100A6188F2A902AEC2951
:10052000200042084304031D962A972A9C2A210092
:10053000261D9B2A9C2AB92AFF302000CC07FF30B9
:10054000CD3D42084304031DA62AA72AAC2A2B301E
:10055000BC000030BD00B02A2D30BC000030BD0012
:100560003C08B8004C08203E86000130870038085F
:10057000810020004C08203EB8003808A400410843
:10058000A6004008A5003B088C316A248131200078
:100590002508B1002408B0000800003020000C1A23
:1005A00001302100B500003020008C1A01302100FC
:1005B000B300003020000E1B01302100B1003108D3
:1005C00030060319E42AE52AEE2A3108031DE92A38
:1005D000EA2AEE2AC501C4016A2C6A2C35083406C1
:1005E0000319F32AF42A7F2B3508031DF82AF92A68
:1005F0007F2B692B0130F0007008C4076A2CC401FE
:100600006A2C4408F000F1017108003A0319092B23
:100610006A2C7008003A0319FA2A013A0319FA2AD7
:10062000033A0319FA2A013A0319FF2A6A2CC50171
:10063000C4013908F0007008C0003808F0007008E4
:10064000BF003708F0007008BE006A2C4408F000B4
:10065000F1017108003A03192E2B6A2C7008003A38
:100660000319FA2A013A0319FA2A033A0319172B34
:100670006A2CC501C4013908F0007008BD003808B3
:10068000F0007008BC003708F0007008BB003608A6
:10069000F0007008BA006A2C4408F000F1017108FB
:1006A000003A0319542B6A2C7008003A0319FA2AED
:1006B000013A0319FA2A033A0319FA2A013A0319EB
:1006C000392B6A2CC501C4012B08A9002A08A800EF
:1006D0006A2C4508F000F1017108003A0319712BEA
:1006E0006A2C7008003A0319012B013A0319262BD2
:1006F000033A03194C2B013A0319622B6A2C330875
:1007000032060319842B852B6A2C3308031D892B91
:100710008A2B6A2C542C410803198F2B902B922B77
:10072000C1016A2CC101C10A6A2CC501C50AC401F4
:10073000B901B801B7016A2C0230F0007008C50099
:10074000C401B901B801B701B6016A2C0330F00049
:100750007008C500C401B901B801B7016A2C44088A
:10076000F000F1017108003A0319B72B6A2C7008E8
:10077000003A03198B2B013A0319952B033A0319FD
:100780009C2B013A0319A62B6A2C0130F00070084B
:10079000B90718303902031CCE2BCF2BED2AB90133
:1007A0006A2C0130F0007008B8073C303802031C96
:1007B000DA2BDB2BED2AB8016A2C0130F00070082F
:1007C000B7073C303702031CE62BE72BED2AAD2B95
:1007D0004408F000F1017108003A0319F02BED2AEA
:1007E0007008003A0319C52B013A0319D12B033ABB
:1007F0000319DD2BED2A0130F0007008B90718301D
:100800003902031C042C052CED2ACF2B0130F000FB
:100810007008B8073C303802031C0F2C102CED2A4E
:10082000DB2B0130F0007008B70718303702031CCB
:100830001A2C1B2CED2AAD2B0130F0007008B607E6
:100840003C303602031C252C262CED2AA42B440810
:10085000F000F1017108003A03192F2CED2A7008FD
:10086000003A0319FB2B013A0319062C033A03192A
:10087000112C013A03191C2CED2A2F080319412CC5
:10088000422C442CAF016A2CAF01AF0A6A2C4408F9
:10089000F000F1017108003A03194F2CED2A70089D
:1008A000003A03193D2CED2A4508F000F1017108CA
:1008B000003A03195C2C6A2C7008003A0319AF2B1C
:1008C000013A0319E82B033A0319272C013A0319BB
:1008D000472C6A2C0800210043084506031D712C93
:1008E000722C782C420844060319772C782CC82FD8
:1008F00001308A313D228431C82FD1302000E800F8
:100900000030E9007530EA008830EB008A31DB22E4
:1009100084310A302100400203188F2C902C9C2C2B
:10092000D1302000E8000030E9006D30EA00883066
:10093000EB008A31DB228431D1302000E800003026
:10094000E9005C30EA008830EB00D130EC00003088
:10095000ED00210040082200D400D50154082000F9
:10096000EE00220055082000EF008A31DB2284319E
:100970000A3021003F020318BE2CBF2CCF2CD130EF
:100980002000E8000030E9006B30EA008830EB001E
:10099000D130EC000030ED008A31DB228431D130DF
:1009A0002000E8000030E9005C30EA008830EB000D
:1009B000D130EC000030ED0021003F082200D400CF
:1009C000D50154082000EE00220055082000EF0059
:1009D0008A31DB2284310A3021003E020318F12CD7
:1009E000F22C022DD1302000E8000030E9006B30FD
:1009F000EA008830EB00D130EC000030ED008A31A5
:100A0000DB228431D1302000E8000030E900623080
:100A1000EA008830EB00D130EC000030ED0021001E
:100A20003E082200D400D50154082000EE00220028
:100A300055082000EF008A31DB228431F7010030B5
:100A40008A31B1228431D130F7000030F8008A3188
:100A500062228431F701F70A0E308A31B1228431E3
:100A6000210041080319352D362D3E2D7930F70030
:100A70008830F8008A3162228431E02F7630F70026
:100A80008830F8008A3162228431E02FF70101308A
:100A90008A31B12284310030F7008830F8008A3181
:100AA00062228431E02FF70102308A31B122843191
:100AB0002A30F7008830F8008A3162228431E02F32
:100AC000F70102308A31B12284313630F7008830A4
:100AD000F8008A3162228431E02F2100440822008C
:100AE000D400D5015508003A0319772DE02F54089A
:100AF000003A03197D2C013A0319462D033A0319D4
:100B0000532D013A0319602DE02FF70101308A318E
:100B1000B12284310030F7008830F8008A31622237
:100B20008431C7302000E8000030E9007530EA0069
:100B30008830EB008A31DB2284310A30210039020F
:100B40000318A32DA42DB02DC7302000E8000030DD
:100B5000E9006D30EA008830EB008A31DB22843115
:100B6000C7302000E8000030E9005C30EA0088303F
:100B7000EB00C730EC000030ED0021003908220006
:100B8000D400D50154082000EE00220055082000B2
:100B9000EF008A31DB2284310A3021003802031849
:100BA000D22DD32DE32DC7302000E8000030E9001E
:100BB0006B30EA008830EB00C730EC000030ED000D
:100BC0008A31DB228431C7302000E8000030E900A0
:100BD0005C30EA008830EB00C730EC000030ED00FC
:100BE000210038082200D400D50154082000EE006E
:100BF000220055082000EF008A31DB2284310A30C0
:100C0000210037020318052E062E162EC7302000AD
:100C1000E8000030E9006B30EA008830EB00C730B4
:100C2000EC000030ED008A31DB228431C730200037
:100C3000E8000030E9006230EA008830EB00C7309D
:100C4000EC000030ED00210037082200D400D5016F
:100C500054082000EE00220055082000EF008A31E1
:100C6000DB228431F701F70A04308A31B122843162
:100C7000C730F7000030F8008A3162228431E02F5B
:100C8000F70102308A31B12284312A30F7008830EE
:100C9000F8008A316222843140302000E8000130BF
:100CA000E9007530EA008830EB008A31DB228431BC
:100CB0000A302100390203185E2E5F2E6B2E403061
:100CC0002000E8000130E9006D30EA008830EB00D8
:100CD0008A31DB22843140302000E8000130E90015
:100CE0005C30EA008830EB004030EC000130ED0071
:100CF000210039082200D400D50154082000EE005C
:100D0000220055082000EF008A31DB2284310A30AE
:100D10002100380203188D2E8E2E9E2E403020008A
:100D2000E8000130E9006B30EA008830EB00403029
:100D3000EC000130ED008A31DB22843140302000AC
:100D4000E8000130E9004D30EA008830EB00403027
:100D5000EC000130ED00210038082200D400D5015C
:100D600054082000EE00220055082000EF008A31D0
:100D7000DB2284310A30210037020318C02EC12E35
:100D8000D12E40302000E8000130E9006B30EA004D
:100D90008830EB004030EC000130ED008A31DB227E
:100DA000843140302000E8000130E9005C30EA0086
:100DB0008830EB004030EC000130ED0021003708B6
:100DC0002200D400D50154082000EE00220055086E
:100DD0002000EF008A31DB2284310A302100360204
:100DE0000318F32EF42E042F40302000E8000130C9
:100DF000E9006B30EA008830EB004030EC00013055
:100E0000ED008A31DB22843140302000E8000130DF
:100E1000E9006230EA008830EB004030EC0001303D
:100E2000ED00210036082200D400D501540820002E
:100E3000EE00220055082000EF008A31DB228431C9
:100E4000F701F70A01308A31B12284314030F700CE
:100E50000130F8008A3162228431E02FF70100303E
:100E60008A31B12284310F30F7008830F8008A319E
:100E70006222843121002F0803193F2F402F482F71
:100E80006F30F7008830F8008A31622284314F2FAA
:100E90006730F7008830F8008A3162228431A5304B
:100EA000F6000130F70021002B08F1002A08F000BD
:100EB0006430F2000030F30089319A2184317108E6
:100EC000F9007008F8008031132084317608220080
:100ED000D40054082100AE000A302E020318712FEE
:100EE000722F7F2FDB302000E8000030E9007630E1
:100EF000EA008830EB008A31DB2284319E2F643097
:100F00002E020318842F852F922FDB302000E8005B
:100F10000030E9007730EA008830EB008A31DB22CC
:100F200084319E2FDB302000E8000030E90075306E
:100F3000EA008830EB008A31DB228431DB3020008C
:100F4000E8000030E9005530EA008830EB00DB3083
:100F5000EC000030ED0021002E082200D400D50165
:100F600054082000EE00220055082000EF008A31CE
:100F7000DB228431F701F70A06308A31B12284314D
:100F8000DB30F7000030F8008A3162228431E02F34
:100F9000210045082200D400D5015508003A031964
:100FA000D22FE02F5408003A03196D2D013A03198E
:100FB000852D033A0319402E013A03192E2FE02FF5
:100FC00008000E30840089308500E930860000304A
:100FD00087000730803104208731A0308400003042
:100FE000850040308931082187312030840001306C
:100FF00085002E3089310821873120008C310F2C5B
:1010000043344F344E3446344934473455345234E3
:1010100045342034543449344D34453400344E344E
:10102000493447344834543420344C3449344734F8
:10103000483454343A342034003449344E3449343A
:101040005434493441344C3449345A3449344E349C
:10105000473400344134553454344F3420344F3401
:101060004E342F344F344634463400344E344934F1
:1010700047344834543420344C34493447344834A9
:1010800054340034203420342034203420342034AC
:10109000483445344C3441340034253473342534D9
:1010A000643420342D342034003425347334253412
:1010B00064342534253400342534733425346434C1
:1010C0003A340034253473342534643400344E34D7
:1010D0004F342034003425347334303400345934E0
:1010E0004534533400340D340A3400342034203471
:0810F00000344F344E3400348B
:1011E2000800163021009700080071082200CF0085
:1011F2007008CE00080071082200D3007008D200E7
:10120200080071082200D1007008D00008006400B4
:1012120080010131890B0929003428346E34753478
:101222006C346C34293400347230210099009A01F4
:10123200980124009D0108008B31062389318931F0
:10124200152189318831F220893180310A20893192
:101252008A311B22893108007108F3007008F200FC
:1012620036290130F0070030F13D70088600710820
:1012720087000108031D3E293F29322972087002A6
:10128200F0007308713BF10008007408803AF50021
:1012920080307502031D4F29013073020318522951
:1012A20053295F297309F5007409F600F50A031939
:1012B200F60A7508F3007608F4005F290800F300C7
:1012C2007308F200F20DF20D21001D087206833937
:1012D20072069D001D140330890B6D290000210048
:1012E2009D149D187529762972291C08F1001B0886
:1012F200F0000800F3007308F1000430F136890BA6
:101302007F297108F2007208F30073080F39F100A7
:101312007108F30022000E08F0398E000E087304E3
:101322008E00700C031C8E1203188E160E160E12EF
:101332000800F401F501701C9F29A029A429720854
:10134200F4077308F53D0130F235F30D890BA52939
:101352000130F136F00C890BAA2970087104031DC3
:10136200B329B4299C297508F1007408F00008001B
:10137200F6000D30F400FC30890BBD29F40BBD29B9
:10138200F001F00A760889317B2189317608F40070
:101392000330F435FF3E031DCA297435F500750884
:1013A200F600F001F00A760889317B2189310800C4
:1013B200F100F201F329F3011A30F000F830890B41
:1013C200E029F00BE02900320130F0007008F30749
:1013D20064307302031CEE29EF29DD290130F0008D
:1013E2007008F20771087202031CF829F929DC2936
:1013F200080022008E0121008E012730F700F5300F
:10140200890B012AF70B012A000032308A313D2272
:10141200893128308A313D2289310C308A313D228E
:10142200893101308A313D22893106308A313D22AB
:1014320089310800083023009F0080309D0024304D
:101442009E00CF309B009C010030F0000030F10084
:101452008831FC208A310030F0000030F1008931FF
:1014620002218A310030F0000030F1008831F6208C
:101472008A312100C6010800F6000D30F400FC306C
:10148200890B412AF40B412AF001760889317B212C
:101492008A317608F4000330F435FF3E031D4D2AED
:1014A2007435F5007508F6000330F4009830890BA6
:1014B200582AF40B582AF001760889317B218A31A7
:1014C2000800FC01772A7808FA007708F9007C08FE
:1014D200790784007A0803187A0A8500000889319E
:1014E200B9218A310130F9007908FC077808FA003D
:1014F2007708F9007C08790784007A0803187A0AC9
:1015020085001200031D862A872A642A080020000B
:10151200A300A101A201A02A2008F900FA0179087A
:10152200F0007A08F1007808FB007B08F2008B31AA
:10153200BA238A3101302000A1070030A23D2108E0
:101542002307F90079088600013087000108FA00B4
:101552007A08A0002008031DAF2AB02A8D2A0800AD
:10156200FB00023077020318B72AB82ADA2A1030B1
:101572007B02031CBD2ABE2ABF2ADA2A770303197B
:10158200C32AC42ACA2A80307B04F9000030FA0038
:10159200CF2AC0307B04F9000030FA0079088A3182
:1015A2003D228A310D30F800FC30890BD62AF80B27
:1015B200D62A08006C30FD007D082100E2002000E0
:1015C20069082100E400200068082100E300E50129
:1015D200E601E701E80120006B08E1006A08E0008B
:1015E200E230FD007D08E200E3308B3136238A31A0
:1015F2000230E33E86008701403F200068078400F6
:10160200413F693D85008001080022008C018D0167
:101612008E01373021008C0070308D0040308E00FA
:1016220023008E01D0308D0007308C0024008D0104
:101632008C018E012100951725008C018D018E01F0
:10164200373026008C00F0308D00FF308E003F30A6
:1016520027008C00F0308D00FF308E000D303C00F2
:10166200A40016303D009F0008002000E50061083C
:10167200E7006008E6002100A001A101542B6630BA
:10168200E3006308CE006208E4006408CF00650846
:1016920080314F208B3120004E082100A00720000E
:1016A2004F082100A13D20006608840067088500DC
:1016B2001200031D5D2B5E2B402B21002108200010
:1016C200E100210020082000E0000800210041087C
:1016D20003196C2B6D2B702B22008E17B92B3D0832
:1016E200031D742B752B842B3C08031D792B7A2B3D
:1016F200842B3B08031D7E2B7F2B842B3A08031976
:10170200832B842BA42B3F08F6007608F0003D08BB
:10171200F7007708F1003C08F8007808F2003B086F
:10172200F9007908F3003A08FA007A08F400400850
:101732008C31C6248B31003A0319A02BA12BA42B88
:1017420022008E17B92B21002F080319A92BAA2BCF
:10175200B72B2B082902031DB02B2A082802031CD1
:10176200B32BB42BB72B22008E17B92B22008E136A
:10177200080072080319BE2BBF2BC42B7208031D6D
:10178200C32BC42BC92B70088831F1208B310E2C4E
:101792007208043E86008701160001040319D22B49
:1017A200D32BF12B7208043E86008701403FF300E1
:1017B200413FF4007208023E86008701403FF50077
:1017C200413FF6007608803AF7007408803A7702C3
:1017D200031DED2B730875020318F02BF12B0E2C51
:1017E2007208023E86008701720884008501403F2C
:1017F2000007F3000131413F003DF4007308860009
:1018020074088700700881007208023E8600870112
:101812000130810741310318810A080089311D21F5
:101822008C3180310A208C318931FA218C312100AE
:101832000E174230F7008830F8008A3162228C316C
:10184200F701F70A02308A31B1228C311D30F700DC
:101852008830F8008A3162228C3103308931D921F3
:101862008C3101308A313D228C3102308931602144
:101872008C3171082100AB007008AA008231CD22A0
:101882008C3184316B248C318B3167238C31210074
:1018920045082200D60056082100C3004408220051
:1018A200D60056082100C20035082200D60056088C
:1018B2002100B40033082200D60056082100B200ED
:1018C20031082200D60056082100B000362C8031A3
:1018D20002282000AB002100261C702C712C7A2CCF
:1018E20020002B08FC007C08F80024088A3188229A
:1018F2008C312000A61B7E2C7F2C842C2608AA006B
:101902002508A900862CA901AA01A701A8019A2CE1
:101912002030F0000030F10020002B08FC007C0891
:10192200F2008B31BA238C3101302000A70700303E
:10193200A83D2808803AFC002A08803A7C02031D50
:10194200A42C29082702031CA72CA82C892C2100CF
:101952002618AC2CAD2CB62C20002B08FC007C08E1
:10196200F80024088A3188228C3120002408F000F3
:101972000130F10089312D218C31200029087007B6
:10198200A4002A08713DA50008002000A500A201BC
:10199200710873020318CE2CCF2CE02C7108F500CD
:1019A2007508A6007208F5007508A7007308F5000F
:1019B2007508A8007408F5007508A900FE2C7308C4
:1019C20071020318E52CE62CF72C7308F500750854
:1019D200A6007408F5007508A7007108F5007508DF
:1019E200A8007208F5007508A900FE2C740872029E
:1019F200031CFC2CFD2CE62CCF2CA301280825026D
:101A0200031C042D052D0D2D29087002031C0A2D1F
:101A12000B2D0D2DA301A30A2308031D112D132D38
:101A22000130142D0030F5007508A000A40125082E
:101A32002602031C1D2D1E2D262D70082702031CB5
:101A4200232D242D262DA401A40A2408031D2A2DAA
:101A52002C2D01302D2D0030F5007508A100200835
:101A62000319342D352D3C2D21080319392D3A2D1A
:101A72003C2DA201A20A220808002000AB00E93096
:101A82008600003087002030840000308500073057
:101A9200FA0016001A00FA0B4A2D7908AD007808F0
:101AA200AC002C082D04031D572D582D5C2D203021
:101AB200AC000030AD002D08F1002C08F000893197
:101AC2002D218D3171082000B1007008B000210075
:101AD20025082000AF00210024082000AE00AF1B23
:101AE200732D742D882D2F08803AFA003108803A20
:101AF2007A02031D7E2D30082E02031C812D822DB9
:101B0200832D882D20002F08B1002E08B000200060
:101B12003108AF003008AE00210023082000AA00DF
:101B2200210022082000A90021002618992D9A2DB3
:101B3200BB2DAC2D2030F0000030F10020002B082E
:101B4200FA007A08F2008B31BA238D31013020007D
:101B5200B0070030B13D20003108803AFA002A086F
:101B6200803A7A02031DB72D29083002031CBA2DD0
:101B7200BB2D9B2D2000A701A801DB2D20002C08E6
:101B820086002D0887000108FA00FB017A08F000A0
:101B92007B08F1002B08FC007C08F2008B31BA2391
:101BA2008D3101302000AC070030AD3D0130A70778
:101BB2000030A83D2808803AFA002F08803A7A02BD
:101BC200031DE52D2E082702031CE82DE92DBF2D4C
:101BD2002100261CED2DEE2D0F2E002E2030F000C0
:101BE2000030F10020002B08FA007A08F2008B3155
:101BF200BA238D3101302000B0070030B13D200002
:101C02003108803AFA002A08803A7A02031D0B2E24
:101C120029083002031C0E2E0F2EEF2D2000310852
:101C2200F9003008F8000800F20128308600003080
:101C32008700473FF000F01F1F2E202E412E20006C
:101C4200A809A909AA09AB09AC09AD09AE09AF09EE
:101C5200A80A031D3F2EA90A031D3F2EAA0A031D2F
:101C62003F2EAB0A031D3F2EAC0A031D3F2EAD0AC9
:101C7200031D3F2EAE0A031D3F2EAF0AF201F20AE8
:101C82002030860000308700473FF000F01F4A2EC8
:101C92004B2E6A2E2000A009A109A209A309A409BA
:101CA200A509A609A709A00A031D6A2EA10A031DF8
:101CB2006A2EA20A031D6A2EA30A031D6A2EA40A13
:101CC200031D6A2EA50A031D6A2EA60A031D6A2E8B
:101CD200A70A200020082104220423042404250446
:101CE200260427040319762E772ECA2EF101F10A53
:101CF200862EA035A10DA20DA30DA40DA50DA60D36
:101D0200A70D0130F0007008F107A71F892E8A2E57
:101D12007A2E27082F02031DA82E26082E02031D45
:101D2200A82E25082D02031DA82E24082C02031D0F
:101D3200A82E23082B02031DA82E22082A02031D07
:101D4200A82E21082902031DA82E20082802031C00
:101D5200AB2EAC2EBC2E2008A8022108A93B2208DB
:101D6200AA3B2308AB3B2408AC3B2508AD3B260825
:101D7200AE3B2708AF3BA736A60CA50CA40CA30CC0
:101D8200A20CA10CA00C0130F102031DC92ECA2E17
:101D92008A2E72080319CE2ECF2EED2EA809A9097C
:101DA200AA09AB09AC09AD09AE09AF09A80A031D1E
:101DB200ED2EA90A031DED2EAA0A031DED2EAB0A74
:101DC200031DED2EAC0A031DED2EAD0A031DED2EF3
:101DD200AE0A031DED2EAF0A20002808A000290834
:101DE200A1002A08A2002B08A3002C08A4002D0899
:101DF200A5002E08A6002F08A7000800F201203037
:101E0200860000308700473FF000F01F092F0A2F9D
:101E12002B2F2000A009A109A209A309A409A50941
:101E2200A609A709A00A031D292FA10A031D292F0C
:101E3200A20A031D292FA30A031D292FA40A031D89
:101E4200292FA50A031D292FA60A031D292FA70A38
:101E5200F201F20A2830860000308700473FF00086
:101E6200F01F342F352F582F2000A809A909AA09DD
:101E7200AB09AC09AD09AE09AF09A80A031D542F7D
:101E8200A90A031D542FAA0A031D542FAB0A031DCE
:101E9200542FAC0A031D542FAD0A031D542FAE0A52
:101EA200031D542FAF0A0130F0007008F2067330A0
:101EB2008600003087000830F00000301E00F00B72
:101EC2005F2F200020082104220423042404250477
:101ED2002604270403196E2F6F2FCB2FF101F10A6D
:101EE2007E2FA035A10DA20DA30DA40DA50DA60D4B
:101EF200A70D0130F0007008F107A71F812F822F74
:101F0200722FF335F40DF50DF60DF70DF80DF90DF1
:101F1200FA0D27082F02031DA82F26082E02031DE3
:101F2200A82F25082D02031DA82F24082C02031D0B
:101F3200A82F23082B02031DA82F22082A02031D03
:101F4200A82F21082902031DA82F20082802031CFC
:101F5200AB2FAC2FBD2F2008A8022108A93B2208D5
:101F6200AA3B2308AB3B2408AC3B2508AD3B260823
:101F7200AE3B2708AF3B7314A736A60CA50CA40CE6
:101F8200A30CA20CA10CA00C0130F102031DCA2F5C
:101F9200CB2F822F72080319CF2FD02FEE2FF309E8
:101FA200F409F509F609F709F809F909FA09F30A32
:101FB200031DEE2FF40A031DEE2FF50A031DEE2F6B
:101FC200F60A031DEE2FF70A031DEE2FF80A031D72
:101FD200EE2FF90A031DEE2FFA0A73082000A00063
:101FE2007408A1007508A2007608A3007708A4006F
:0E1FF2007808A5007908A6007A08A700080064
:020000040001F9
:04000E00E43FFF3E8E
:00000001FF
