:020000040000FA
:1000000080312E28BB3487347E1480310B1F0928A1
:100010000A282C282100111E0E280F281B2820003A
:10002000111E132814281B28210060088A005F086D
:100030000A0080312C282100911E1F2820282C28FE
:100040002000911E242825282C2821005E088A00E3
:100050005D080A0080312C287E100900803130288C
:100060002100803102208031E8008031032080317E
:10007000E900FC01A0308400003085003730873172
:10008000F427803120308400013085002030873112
:10009000F42780317E1020008431842C2000BD00A4
:1000A0003008C4003108C5003208C6003308C70054
:1000B0003408C8003508C9003608CA003708CB0024
:1000C0004430860000308700473FB800B81B6928DD
:1000D0006B2801306C2800302000B900BA013908C3
:1000E000C2003A08C300420843040319782879285B
:1000F0009728C409C509C609C709C809C909CA0991
:10010000CB09C40A031D9728C50A031D9728C60AF0
:10011000031D9728C70A031D9728C80A031D97289F
:10012000C90A031D9728CA0A031D9728CB0A210074
:10013000CD1B9B289C28A028FD30CE05FF30CF0585
:100140004D08803A2000B80080303802031DAB28EB
:10015000013021004C020318AE28AF28B528013029
:100160002000BE000030BF00BD2821004D08200047
:10017000BF0021004C082000BE0021004B082000D9
:10018000C10021004A082000C00042084304031DAA
:10019000CA28CB28D02821004E1DCF28D028D5280A
:1001A000FF302000C007FF30C13D1F302000CC00D1
:1001B0000030CD002200BF014629FF302000CC07CF
:1001C000FF30CD3D0A30A000A101A201A301A4018E
:1001D000A501A601A7014408A8004508A9004608F2
:1001E000AA004708AB004808AC004908AD004A081F
:1001F000AE004B08AF008231BF22803120002108C1
:10020000F5002008F4008731292780317408303E3A
:100210002000B8004C08203E8600013087003808D6
:100220008100FF30BE07FF30BF3DFF30C007FF3009
:10023000C13D0A30A000A101A201A301A401A501B2
:10024000A601A7014408A8004508A9004608AA007D
:100250004708AB004808AC004908AD004A08AE00AA
:100260004B08AF008131BE21803120002008C4003E
:100270002108C5002208C6002308C7002408C800BA
:100280002508C9002608CA002708CB0020004D0811
:10029000803AB80080303802031D502901304C02EA
:1002A000031C53295429812920004408450446048D
:1002B0004704480449044A044B04031D602961298A
:1002C000DD283F08803AB80080303802031D6A29D3
:1002D00001303E0203186D296E29DD2820004108F7
:1002E000803AB80080303802031D7829013040027E
:1002F000031C7B297C2981292100CE188029812992
:10030000DD28200042084304031D872988298D2900
:1003100021004E1D8C298D29AA29FF302000CC07F1
:10032000FF30CD3D42084304031D972998299D299C
:100330002B30BB000030BC00A1292D30BB000030A9
:10034000BC003B08B8004C08203E86000130870006
:100350003808810020004C08203EB8003808A7006B
:100360004108A9004008A8003D088431F7248031E5
:1003700020002808B1002708B0000800F301203051
:10038000860000308700473FF100F11FC829C929C6
:10039000EA292000A009A109A209A309A409A50925
:1003A000A609A709A00A031DE829A10A031DE82937
:1003B000A20A031DE829A30A031DE829A40A031DB4
:1003C000E829A50A031DE829A60A031DE829A70AAA
:1003D000F301F30A2830860000308700473FF10020
:1003E000F11FF329F429172A2000A809A909AA094D
:1003F000AB09AC09AD09AE09AF09A80A031D132A60
:10040000A90A031D132AAA0A031D132AAB0A031DF6
:10041000132AAC0A031D132AAD0A031D132AAE0AC0
:10042000031D132AAF0A0130F1007108F30674307E
:100430008600003087000830F10000301E00F10B0C
:100440001E2A200020082104220423042404250459
:100450002604270403192D2A2E2A8A2AF201F20AD9
:100460003D2AA035A10DA20DA30DA40DA50DA60D2D
:10047000A70D0130F1007108F207A71F402A412A99
:10048000312AF435F50DF60DF70DF80DF90DFA0DCD
:10049000FB0D27082F02031D672A26082E02031DC5
:1004A000672A25082D02031D672A24082C02031D34
:1004B000672A23082B02031D672A22082A02031D2C
:1004C000672A21082902031D672A20082802031C25
:1004D0006A2A6B2A7C2A2008A8022108A93B220844
:1004E000AA3B2308AB3B2408AC3B2508AD3B2608C0
:1004F000AE3B2708AF3B7414A736A60CA50CA40C82
:10050000A30CA20CA10CA00C0130F202031D892A3D
:100510008A2A412A730803198E2A8F2AAD2AF409E0
:10052000F509F609F709F809F909FA09FB09F40AC6
:10053000031DAD2AF50A031DAD2AF60A031DAD2AD7
:10054000F70A031DAD2AF80A031DAD2AF90A031D97
:10055000AD2AFA0A031DAD2AFB0A74082000A00088
:100560007508A1007608A2007708A3007808A40007
:100570007908A5007A08A6007B08A7000800F30107
:100580002830860000308700473FF100F11FC92A5C
:10059000CA2AEB2A2000A809A909AA09AB09AC09B3
:1005A000AD09AE09AF09A80A031DE92AA90A031D6E
:1005B000E92AAA0A031DE92AAB0A031DE92AAC0AA3
:1005C000031DE92AAD0A031DE92AAE0A031DE92A23
:1005D000AF0AF301F30A2030860000308700473F5E
:1005E000F100F11FF42AF52A142B2000A009A1091B
:1005F000A209A309A409A509A609A709A00A031D20
:10060000142BA10A031D142BA20A031D142BA30AE9
:10061000031D142BA40A031D142BA50A031D142B60
:10062000A60A031D142BA70A200020082104220477
:10063000230424042504260427040319202B212B3A
:10064000742BF201F20A302BA035A10DA20DA30DDF
:10065000A40DA50DA60DA70D0130F1007108F2073C
:10066000A71F332B342B242B27082F02031D522BBB
:1006700026082E02031D522B25082D02031D522B86
:1006800024082C02031D522B23082B02031D522B7E
:1006900022082A02031D522B21082902031D522B76
:1006A00020082802031C552B562B662B2008A80275
:1006B0002108A93B2208AA3B2308AB3B2408AC3BFA
:1006C0002508AD3B2608AE3B2708AF3BA736A60C56
:1006D000A50CA40CA30CA20CA10CA00C0130F202DE
:1006E000031D732B742B342B73080319782B792B70
:1006F000972BA809A909AA09AB09AC09AD09AE094C
:10070000AF09A80A031D972BA90A031D972BAA0A54
:10071000031D972BAB0A031D972BAC0A031D972BC8
:10072000AD0A031D972BAE0A031D972BAF0A2000BD
:100730002808A0002908A1002A08A2002B08A3006D
:100740002C08A4002D08A5002E08A6002F08A7003D
:1007500008002000DD004E0886008701403FD000E1
:10076000413FD10050088400510885001200253A0D
:10077000031DBB2BBC2B602C4E088600870101306B
:10078000810741310318810A2100CA01CB01CE0142
:10079000CF01FF30CC00FF30CD0020004E08860096
:1007A0008701403FD000413FD100500884005108EC
:1007B00085001200643A0319DE2BDF2BF02B4E0864
:1007C00086008701403FD000413FD100500884009F
:1007D000510885001200693A031DEF2BF02B2B2CDA
:1007E0004E08860087010130810741310318810AD4
:1007F0004F088600870101088400850102308107C7
:10080000003FD000013FD1005008D5005108D6006C
:10081000890D893B8909D700D800D900DA00DB00AF
:10082000DC005508B0005608B1005708B20058085F
:10083000B3005908B4005A08B5005B08B6005C085C
:10084000B7005D0880314E20833120003108CF0091
:100850003008CE00832C4E0886008701403FD00030
:10086000413FD10050088400510885001200253A0C
:10087000031D3B2C3C2C552C4E0886008701013073
:10088000810741310318810A2530F1000030F20060
:100890005D08D0005008F3008531502583310130C8
:1008A0002000CE000030CF00832C4E088600870148
:1008B0000130810741310318810ACE01CF01832C19
:1008C0004E0886008701403FD000413FD1005008CC
:1008D0008400510885000008D200D3015208F100BD
:1008E0005308F2005D08D4005408F3008531502508
:1008F000833120004E088600870101308107413195
:100900000318810A4F2C08008731AB2784318731C7
:10091000E32784318731E327843102308631F4269E
:10092000843172082100E7007108E6006608670458
:1009300003199B2C9C2CBE2C00306702C830031975
:1009400066020318A42CA52CBE2C9130E200863040
:10095000E3006308F3006208F20087315D27843109
:100960000B302000EF002630EE005D30890BB62CF6
:10097000EE0BB62CEF0BB62C0032DC2C00306702ED
:10098000C93003196602031CC62CC72CDC2C0130AD
:100990006702A830031966020318CF2CD02CDC2C78
:1009A000B230E4008630E5006508F3006408F20028
:1009B00087315D278431B02CCA302000E6008730B3
:1009C000E7008731882784319A302000E60087309D
:1009D000E700210067082000E900210066082000E8
:1009E000E8008731882784318D2C80312E28200023
:1009F000AE0021004E1CFD2CFE2C072D20002E08E1
:100A0000FA007A08F9002708863168268431200028
:100A1000A91B0B2D0C2D112D2908AD002808AC00A9
:100A2000132DAC01AD01AA01AB01272D2030F1003F
:100A30000030F20020002E08FA007A08F300853119
:100A40005025843101302000AA070030AB3D2B082F
:100A5000803AFA002D08803A7A02031D312D2C08C5
:100A60002A02031C342D352D162D21004E18392D48
:100A70003A2D432D20002E08FA007A08F9002708A5
:100A80008631682684312000270887310F2784317A
:100A900020002C087107A7002D08723DA80008004F
:100AA00073080319542D552D5A2D7308031D592D04
:100AB0005A2D5F2D71088F31DB2785318E2D7308FC
:100AC000033E86008701160001040319682D692D75
:100AD000862D7308033E86008701403FF400413FA6
:100AE000F500730A86008701403FF600413FF7009A
:100AF0007708803AF8007508803A7802031D822D45
:100B0000740876020318852D862D8E2D730A8600B3
:100B100087010130810741310318810A0800210053
:100B20009112CD30F1000530F2008F31FA27853176
:100B300021001112D330F1000630F2008731FA277C
:100B40008531083023009F0090309D0024309E00A6
:100B5000CF309B009C01DA30F1000F30F2008F3172
:100B6000EE278531E030F1000F30F2008F31F427AD
:100B70008531DC30F1000F30F2008F31E82785310C
:100B80002100D201D601D5010830F3007308E1003D
:100B9000FC01D401D301911608007C08B03E860008
:100BA0008701810123001D1DD62DD72DE22D7C0844
:100BB000B03E86008701811421005C088A005B0832
:100BC0000A00853123009D1CE62DE72DF22D7C08BF
:100BD000B03E86008701011521005A088A00590895
:100BE0000A0085317C08B03E8600870101080319A0
:100BF000FA2DFB2D022E210058088A0057080A0002
:100C00008631052E87314327853108002000E30017
:100C10005F08E5005E08E4002100C801C901242E38
:100C20006430E1006108CE006008E2006208CF0095
:100C300063088331A923863120004E082100C807AC
:100C400020004F082100C93D200064088400650889
:100C500085001200031D2D2E2E2E102E2100490876
:100C60002000DF00210048082000DE0008002200EC
:100C70008C018D018E01373021008C0070308D0089
:100C8000FE308E00CF3023008E00D0308D00173024
:100C90008C0024008D018C018E0121009517250008
:100CA0008C018D018E01373026008C00F0308D00D4
:100CB000FF308E003F3027008C00F0308D00FF3079
:100CC0008E000D303C00A40016303D009F0008004F
:100CD0002000A600A401A501802E2308A000A101E8
:100CE0002008F1002108F2007908A2002208F30090
:100CF00085315025863101302000A4070030A53D04
:100D000024082607A000200886000130870001087B
:100D1000A1002108A3002308031D8F2E902E6D2E05
:100D200008004534733420346D34613479346F34C1
:100D300072342034613420346334653472346F3457
:100D40002034793420346D3465346E346F34723429
:100D500020346134203435343034303420340D3490
:100D60000A3400344534733420346D3461347934BA
:100D70006F347234203461342034353430343034BC
:100D80002034793420346D3465346E346F347234E9
:100D9000203461342034313430343234343420342B
:100DA0000D340A3400340830210061020318D92EB2
:100DB000DA2EF22E5508C03E860087010108230076
:100DC0009A000130F00070082100D5070830550264
:100DD000031CEB2EEC2EED2ED5010130F000700837
:100DE000E107F32E11120800F4007408F300F30D6C
:100DF000F30D21001D087306833973069D001D1431
:100E00000330890B012F000021009D149D18092F2C
:100E10000A2F062F1C08F2001B08F1000800F5003D
:100E20007508F3007308F400192F0130F3007308FC
:100E3000F50775088600013087000108031D212F82
:100E4000222F152F74087502F100F201F11BF20335
:100E500008007508803AF60080307602031D322FB4
:100E6000013074020318352F362F422F7409F60013
:100E70007509F700F60A0319F70A7608F4007708EF
:100E8000F500422F080023001908F0007C08B83E46
:100E900086008701700881000130F0007008FC07AF
:100EA00008307C02031C552F562F572FFC010130B0
:100EB000F00070082100D30708006A2F7208840030
:100EC0007308850000088731D92787310130F20780
:100ED0000030F33D72088400730885001200031D82
:100EE000722F732F5E2F080000340034003400345A
:100EF0000034003400340034FA340734CD3405347F
:100F0000FA340F3400340034D33406348F340534CB
:100F100068302000EA006A08ED006708DF00660814
:100F2000DE006D30EA006A08E000003086310626F7
:100F300087310800483465346C346C346F342034A5
:100F400057346F3472346C34643421342034253493
:100F500064340A3400348631372687318731EC27F0
:100F600087318F31E42787318731E3278731853116
:100F70008F25873108005434723461346E347334F1
:100F80006D34693474342034743465347334743497
:100F90000A340034483465346C346C346F34203493
:100FA00057346F3472346C346434213420340A344E
:100FB0000034F1002000111EDE2FDF2FDA2F710820
:100FC00023009A000800803021009E009F019B01B1
:100FD0009C0101309D0008007230210099009A01A7
:100FE000980124009D010800640080010131890BF3
:100FF000F52F003472082100E0007108DF000800BE
:101FB40008000800873143278F31080023001D12D1
:101FC4001D16080016302100970008007208210031
:101FD400D8007108D700080072082100DC007108DD
:101FE400DB00080072082100DA007108D90008003B
:0C1FF40072082100DE007108DD0008000A
:020000040001F9
:04000E00E43FFF3E8E
:00000001FF
