:020000040000FA
:08000000803102288731F42F42
:1007BC0001300800053008002000911108002400C9
:1007CC00951208002100911108002400161408004D
:1007DC002400961408002400161508002400961511
:1007EC0008002400110808002000911508002400BE
:1007FC0096161616080024009612161608001630C7
:10080C00210097000800F0007008240091000800F7
:10081C002000BC10BB010E3008008331EE23843164
:10082C00013008008331EE2384310230080083311B
:10083C00EE238431013008008331F1238431003000
:10084C000800843101248431053008008331FD23F4
:10085C0084310A3008008331FD23843109300800CB
:10086C002000BC10BB010E300800013085319425EE
:10087C00843108002400160E890C890C01390800FB
:10088C002000911D4A2C4B2C462C0800710820008E
:10089C00C0007008BF00080071082000C400700878
:1008AC00C300080071082000C2007008C1000800D5
:1008BC00640080010131890B5F2C003420003C1056
:1008CC008331F42384310430080020003C14363585
:1008DC0084310924843103300800723021009900DE
:1008EC009A01980124009D01080020003C14031477
:1008FC00360D843109248431053008008030210004
:10090C009E009F019B019C0101309D00080024006A
:10091C00940108309500960113309200951208004E
:10092C00F0002000111E9B2C9C2C972C700823008F
:10093C009A0008007608F1007508F0007708F800B6
:10094C007808F20000308531D32584310800B42CAE
:10095C008431462484318531F92584312000BC183A
:10096C00B82CB92CAE2C08002400951ABE2CBF2C28
:10097C00C62C940108309500960113309200951600
:10098C000800F3002000BC1DCC2CCD2CD62C7308F9
:10099C00F2007208B7007108B9007008B800BC11F9
:1009AC0008000230F0000030F10079088431C724CF
:1009BC0084310030F500F600F7018431A024843135
:1009CC00043008000130F0000030F1007908843167
:1009DC00C72484310030F500F600F7018431A024DF
:1009EC008431023008000230F0000030F100790848
:1009FC008431C72484310030F500F600F7018431CE
:100A0C00A0248431023008000130F0000030F100E5
:100A1C0079088431C72485310030F500F600F701E0
:100A2C008431A02485310430080084318D24853133
:100A3C008631B9268531843173248531843105247E
:100A4C0085318431842485318531B2258531080086
:100A5C003B2D7108840072088500000884319624AF
:100A6C0085310130F1070030F23D710884007208C5
:100A7C0085001200031D432D442D2F2D08007908ED
:100A8C0086008701403FF000413FF1007908023EAB
:100A9C008600870101088431C72485310030F500B8
:100AAC00F600F7018431A024853102300800F300F0
:100ABC007308F200F20DF20D21001D087206833945
:100ACC0072069D001D140330890B6A2D0000210055
:100ADC009D149D18722D732D6F2D1C08F1001B0891
:100AEC00F0000800F101F10A2000BC187E2D7F2DCA
:100AFC00922D3C11FF30F0007008B6008331E223D8
:100B0C0085318331E82385318331E523853120001C
:100B1C003B08F0007008F10071080800F800F901BA
:100B2C00F90A2000BC189B2D9C2DB02DBC14F9018A
:100B3C0078080319A22DA32DA62DBA01BA0AAA2D45
:100B4C000230F7007708BA008331EB23853184310A
:100B5C00AD24853179080800083023009F008030CF
:100B6C009D0024309E00CF309B009C010030F00093
:100B7C000030F1008431522485310030F000003017
:100B8C00F1008431582485310030F0000030F10040
:100B9C0084314C248531FC010800F4007008710488
:100BAC000319D92DDA2DEB2D7435203E86008701E3
:100BBC007008C03F7108C13F7208F30074082C3EE6
:100BCC008600870173088100F82D7435203E86005D
:100BDC008701DE30C03F0330C13F74082C3E8600D5
:100BEC008701810108008331E223853120003C1C00
:100BFC00002E012E0E2E843140248531003A03192B
:100C0C00082E092E0E2E0F30F40074082000BA00A6
:100C1C0020003A08F400F501F435F50D4A3074075C
:100C2C0084008830753D8500013F8A00003F0A0032
:100C3C008631F60076082000BA00080020003C102F
:100C4C000230F0007008BB00332E84311D24863135
:100C5C004F2E8431222486314F2E2E08F00070083E
:100C6C00F9000430203E86008701413F8A00403F56
:100C7C000A008631F100F2017208003A0319472E7E
:100C8C002F2E7108023A03192B2E013A03192B2E21
:100C9C002F2E08002000BC15602E84311D248631B7
:100CAC007E2E8331FA23863103307E2E843122242A
:100CBC0086317E2E2C08F0007008F90021088A007D
:100CCC0020080A008631F100F2017208003A03197B
:100CDC00702E5C2E7108013A03195C2E033A03192D
:100CEC00532E013A0319532E073A0319572E5C2E33
:100CFC000800F100F201F20A20003C19862E872E22
:100D0C00B72E7108F0007008B600BC103C153C10F2
:100D1C000E30F0007008BA00F430B4000130B500A9
:100D2C00BC15DE30A0000330A100AC01DE30A20007
:100D3C000330A300AD01DE30A4000330A500AE01EA
:100D4C00DE30A6000330A700AF01E030A80003306E
:100D5C00A900B0018331E22386318431BA24863173
:100D6C00F2017208080022008C018D018E013730CF
:100D7C0021008C0070308D00FE308E00CF302300AF
:100D8C008E0080308D0017308C0024008D018C017A
:100D9C008E012100951725008C018D018E013730B5
:100DAC0026008C00F0308D00FF308E003F30270085
:100DBC008C00F0308D00FF308E000D303C00A40014
:100DCC000C30A10012303D009E0016309F001330F5
:100DDC009C000E303C00A00008008331F7238631C4
:100DEC00F000200037088600870170088100013070
:100DFC00F0007008B7070130B8020030B93B380872
:100E0C00390403190A2F0B2F102F8431012486313A
:100E1C000530382FBC151A2F843131248631382FE8
:100E2C0084312C248631382F2C08F0007008F900FE
:100E3C0021088A0020080A008731F100F2017208AB
:100E4C00003A03192A2F162F7108013A0319162F8D
:100E5C00033A0319122F013A0319122F073A0319F7
:100E6C00162F162F0800843140248731003A0319BD
:100E7C00402F412F712F4E2F8431132487318D2F0A
:100E8C008431182487318D2F8431222487318D2F82
:100E9C0020002F08F1007108F9000630203E860072
:100EAC008701413F8A00403F0A008731F200F3017D
:100EBC007308003A0319632F4A2F7208013A031979
:100ECC004A2F033A0319422F013A0319462F073AC6
:100EDC0003194A2F4A2F20003C101730203E860061
:100EEC008701403F84008501810A00088431092470
:100EFC00873101302000B8020030B93B3808390482
:100F0C00031D892F8A2F8C2F06308D2F033008005C
:100F1C0085311B25873184318D248731843184249C
:100F2C008731843184248731683086317F2687313C
:100F3C00023085315D25873171082000CA007008A8
:100F4C00C90049084A040319AC2FAD2FCD2F00302E
:100F5C004A02C830031949020318B52FB62FCD2FFA
:100F6C000030C5008830C6004608F2004508F10084
:100F7C0085312E2587310B30FB002630FA005E3090
:100F8C00890BC62FFA0BC62FFB0BC62FEB2F00308D
:100F9C004A02C93003194902031CD52FD62FEB2F57
:100FAC0001304A02A830031949020318DE2FDF2F43
:100FBC00EB2F2530C7008830C8004808F2004708DE
:100FCC00F10085312E258731C12F84313B248731A7
:100FDC008531782587319A2F80310228FC01203009
:100FEC008400003085001F3084315E24873120005E
:100FFC0087318E2F4A344734363420344534733499
:10100C0020346D34613479346F347234203461346B
:10101C0020346334653472346F34203479342034A2
:10102C006D3465346E346F34723420346134203452
:10103C0035343034303420340D340A3400344A34EE
:10104C004734363420344534733420346D346134B1
:10105C0079346F3472342034613420343534303484
:10106C0030342034793420346D3465346E346F343C
:10107C0072342034613420343134303432343434EA
:10108C0020340D340A3400340E3404347B340434EC
:10109C006B34043439340734F33406346434043494
:1010AC005034063413340434183404341D340434EA
:1010BC0022340434273404342C34043431340434CE
:0810CC003634043424340634E8
:020000040001F9
:04000E00E43FFF3E8E
:00000001FF
