:020000040000FA
:04000000803119280A
:100008007E1480310B1F09280A2817282100931C09
:100018000E280F2817282000931C132814281728A7
:100028008031432080317E10090080311B28F20185
:10003800F3017E10200080316B28220090018F018F
:100048008C018D018E010E3021009000FF308C0054
:10005800FF308D00FF308E00FF308F00FF3023000F
:100068008F003F308D00063090003F308C00240018
:1000780090018D012100951722009D0108002000A4
:1000880093100130F2070030F33D003073020B305B
:1000980003197202031C51285228572880319420D2
:1000A8008031F201F30108008D3028009600950197
:1000B8002000931021009314B030F4000030F500B4
:1000C8008031A72080310730280097000800803150
:1000D8007A2080318B130B138730F4000030F50041
:1000E8008031A7208031772880311928803121205C
:1000F80080318031A02080318031AC208031803146
:1001080058208031080003102200101C0314031823
:100118008E2891282200101493282200101008001D
:1001280070087104031999289A289F2871088A0071
:1001380070080A0080310800683021009900980191
:100148002200960108007508F1007408F000080004
:0A015800163021009700080008008F
:020000040001F9
:04000E00E43FFF3E8E
:00000001FF
